:100000000C9462000C948A000C948A000C948A0070
:100010000C948A000C948A000C948A000C948A0038
:100020000C948A000C948A000C948A000C948A0028
:100030000C948A000C948A000C948A000C948A0018
:100040000C94E5000C948A000C9423020C948A0012
:100050000C948A000C948A000C948A000C948A00F8
:100060000C948A000C948A000000000024002700F1
:100070002A0000000000250028002B0000000000DE
:1000800023002600290004040404040404040202DA
:100090000202020203030303030301020408102007
:1000A0004080010204081020010204081020000012
:1000B0000007000201000003040600000000000029
:1000C0000000A80311241FBECFEFD8E0DEBFCDBFD4
:1000D00011E0A0E0B1E0E8E4F9E002C005900D9283
:1000E000A431B107D9F711E0A4E1B1E001C01D923C
:1000F000A83BB107E1F710E0C4ECD0E004C02297C0
:10010000FE010E949E04C23CD107C9F70E94DE0096
:100110000C94A2040C94000085EA91E00E9459031B
:10012000882399F185EA91E00E946D03FC01F19723
:10013000F0931501E0931401EE0FFF1FE050FF4F05
:1001400080810E94D4019093170180931601813021
:10015000910569F4E0911401F0911501EE0FFF1F74
:10016000E050FF4F808160E00E9487010895892B55
:1001700061F4E0911401F0911501EE0FFF1FE050C2
:10018000FF4F808161E00E9487010895CF93DF9344
:1001900085EA91E040E855E260E070E00E9460028C
:1001A000C0E0D1E0888161E00E946701229681E091
:1001B000CA30D807B9F7DF91CF9108950E942D0179
:1001C0000E94C6000E948C00FDCF1F920F920FB6B6
:1001D0000F9211242F933F938F939F93AF93BF93CD
:1001E00080911C0190911D01A0911E01B0911F01F1
:1001F000309120010196A11DB11D232F2D5F2D37B8
:1002000020F02D570196A11DB11D20932001809350
:100210001C0190931D01A0931E01B0931F018091BA
:10022000180190911901A0911A01B0911B0101963A
:10023000A11DB11D8093180190931901A0931A017B
:10024000B0931B01BF91AF919F918F913F912F91DF
:100250000F900FBE0F901F901895789484B5826010
:1002600084BD84B5816084BD85B5826085BD85B55A
:10027000816085BDEEE6F0E0808181608083E1E809
:10028000F0E0808182608083808181608083E0E80B
:10029000F0E0808181608083E1EBF0E08081846028
:1002A0008083E0EBF0E0808181608083EAE7F0E02A
:1002B000808184608083808182608083808181608E
:1002C00080838081806880831092C1000895282FE8
:1002D00030E0C90186569F4FFC0194912A573F4F49
:1002E000F9018491882391F0E82FF0E0EE0FFF1FD1
:1002F000E859FF4FA591B491662329F48C9190950C
:1003000089238C9308958C91892B8C930895482F81
:1003100050E0CA0182559F4FFC012491CA018656C4
:100320009F4FFC0194914A575F4FFA013491332358
:10033000D1F1222331F1233021F4809180008F7795
:1003400005C0243031F4809180008F7D809380003F
:1003500018C0213019F484B58F7704C0223021F4FD
:1003600084B58F7D84BD0DC0263021F48091B0000E
:100370008F7705C0273029F48091B0008F7D80935E
:10038000B000E32FF0E0EE0FFF1FEE58FF4FA591F6
:10039000B491662329F48C91909589238C930895C8
:1003A0008C91892B8C930895682F70E0CB01825536
:1003B0009F4FFC012491CB0186569F4FFC01449135
:1003C0006A577F4FFB019491992319F420E030E0A4
:1003D00038C0222331F1233021F4809180008F77BF
:1003E00005C0243031F4809180008F7D809380009F
:1003F00018C0213019F484B58F7704C0223021F45D
:1004000084B58F7D84BD0DC0263021F48091B0006D
:100410008F7705C0273029F48091B0008F7D8093BD
:10042000B000892F90E0880F991F84589F4FFC01DE
:10043000A591B4918C9120E030E0842311F021E06B
:1004400030E0C90108951F920F920FB60F92112448
:100450002F933F934F935F936F937F938F939F93CC
:10046000AF93BF93EF93FF934091C600E091A1013A
:10047000F091A201CF01019660E870E00E9438047B
:100480009C018091A3019091A4012817390739F0AC
:10049000EF5DFE4F40833093A2012093A101FF91B5
:1004A000EF91BF91AF919F918F917F916F915F91EC
:1004B0004F913F912F910F900FBE0F901F90189565
:1004C0005F926F927F928F929F92AF92BF92CF92E4
:1004D000DF92EF92FF920F931F93CF93DF93EC0184
:1004E0003A014B01413482E458078FE0680780E00D
:1004F00078070CF07FC060E874E88EE190E0A4011A
:1005000093010E946D042150304040405040CA0188
:10051000B90122E030E040E050E00E946D04590152
:100520006A01A6019501209530954095509594E07B
:10053000220F331F441F551F9A95D1F760E074E2D4
:1005400084EF90E00E946D04CA01B9012FEF30E002
:1005500040E050E00E941904A40193010E946D0440
:10056000C90181509F4F181619061CF4522E5A9437
:1005700003C055245394521A60E079E08DE390E073
:10058000A40193010E946D0421503040404050402E
:10059000CA01B90122E030E040E050E00E946D0461
:1005A000209530954095509583E0220F331F441FCE
:1005B000551F8A95D1F760E074E284EF90E00E94C5
:1005C0006D04CA01B9012FEF30E040E050E00E9415
:1005D0001904A40193010E946D04C90181509F4F29
:1005E000181619061CF4822F815002C081E0821B6C
:1005F000851500F5E885F98581E090E00A8802C05C
:10060000880F991F0A94E2F7808360E079E08DE318
:1006100090E0A40193010E946D04215030404040BD
:100620005040CA01B90122E030E040E050E00E94B1
:100630006D0404C0E885F98510829501EC81FD8187
:100640003083EE81FF812083EA85FB85208141E0B4
:1006500050E0CA010E8402C0880F991F0A94E2F785
:10066000282B2083EA85FB852081CA010F8402C0E4
:10067000880F991F0A94E2F7282B2083EA85FB85CF
:100680008081088802C0440F551F0A94E2F7842B2A
:100690008083DF91CF911F910F91FF90EF90DF90BA
:1006A000CF90BF90AF909F908F907F906F905F9012
:1006B0000895DC011296ED91FC911397E058FF4FDD
:1006C0008191919180589F4F20813181821B930BA2
:1006D00060E870E00E9438040895CF93DF93DC0156
:1006E0001296ED91FC911397EF01CE57DF4F4881A1
:1006F0005981E058FF4F80819181E058F040841784
:10070000950719F42FEF3FEF0CC0E40FF51F208180
:10071000CA01019660E870E00E94380499838883DA
:1007200030E0C901DF91CF910895FC01A085B1852A
:1007300021898C9190E0022E02C0959587950A94AC
:10074000E2F780FFF6CF0484F585E02D60830895FD
:100750008EE091E09093A6018093A50181E291E063
:100760009093A8018093A70185EC90E09093AA0153
:100770008093A90184EC90E09093AC018093AB014D
:1007800080EC90E09093AE018093AD0181EC90E01D
:100790009093B0018093AF0186EC90E09093B2010A
:1007A0008093B10184E08093B30183E08093B4012E
:1007B00087E08093B50185E08093B60181E0809366
:1007C000B70108950F931F93CF93DF938C01EB0133
:1007D00009C02196D801ED91FC910190F081E02DA6
:1007E000C801099568816623A1F7DF91CF911F9118
:1007F0000F910895EF92FF920F931F93CF93DF9382
:100800008C017B01EA010CC0D7016D917D01D801FB
:10081000ED91FC910190F081E02DC801099521979F
:10082000209791F7DF91CF911F910F91FF90EF905B
:100830000895629FD001739FF001829FE00DF11D2A
:10084000649FE00DF11D929FF00D839FF00D749F4A
:10085000F00D659FF00D9927729FB00DE11DF91FF6
:10086000639FB00DE11DF91FBD01CF011124089553
:1008700097FB092E07260AD077FD04D049D006D071
:1008800000201AF4709561957F4F0895F6F79095C2
:1008900081959F4F0895A1E21A2EAA1BBB1BFD0153
:1008A0000DC0AA1FBB1FEE1FFF1FA217B307E4074F
:1008B000F50720F0A21BB30BE40BF50B661F771FA7
:1008C000881F991F1A9469F7609570958095909587
:1008D0009B01AC01BD01CF01089597FB092E0526B0
:1008E0000ED057FD04D0D7DF0AD0001C38F4509545
:1008F0004095309521953F4F4F4F5F4F0895F6F744
:1009000090958095709561957F4F8F4F9F4F08957B
:10091000AA1BBB1B51E107C0AA1FBB1FA617B70725
:1009200010F0A61BB70B881F991F5A95A9F7809541
:100930009095BC01CD010895EE0FFF1F0590F49135
:08094000E02D0994F894FFCFAB
:1009480002000400060008000A00000000009503E9
:04095800E203FA03B9
:00000001FF
