:100000000C9463000C948B000C948B000C948B006C
:100010000C948B000C948B000C948B000C948B0034
:100020000C948B000C948B000C948B000C948B0024
:100030000C948B000C948B000C948B000C948B0014
:100040000C94AF080C948B000C94550A0C948B0004
:100050000C948B000C948B000C948B000C948B00F4
:100060000C948B000C948B000000000024002700EF
:100070002A0000000000250028002B0000000000DE
:1000800023002600290004040404040404040202DA
:100090000202020203030303030301020408102007
:1000A0004080010204081020010204081020000012
:1000B0000007000201000003040600000000000029
:1000C00000008D00510B11241FBECFEFD8E0DEBF22
:1000D000CDBF11E0A0E0B1E0E2EBFFE102C005908E
:1000E0000D92A63AB107D9F712E0A6EAB1E001C035
:1000F0001D92AE3BB107E1F710E0C6ECD0E004C0C2
:100100002297FE010E94D30FC23CD107C9F70E947B
:100110008B0B0C94D70F0C940000EF92FF920F936F
:100120001F9386EAE82E81E0F82EC70163E00E9463
:10013000AF0384EB91E06CE070E04BE050E02AE02C
:1001400030E001E010E00E9431038CE092E0B70162
:100150000E94C8051F910F91FF90EF9008956F9234
:100160007F928F929F92AF92BF92CF92DF92EF9247
:10017000FF920F931F93CF93DF936B017C018BEA68
:1001800092E060E071E00E94C90B8BEA92E0B70157
:10019000A60122E030E00E944F0D8BEA92E064E07D
:1001A00071E00E94C90BC701B60120E030E040E0D9
:1001B00050E00E94060F18161CF4C701B60103C0D8
:1001C000C701B60190582DEC3CEC4CE45DE30E9475
:1001D000530D20E030E040E251E40E940A0F0E94FB
:1001E000230E8B019C013B01CB0164E670E00E9471
:1001F0006D0FEB01E6EFFFEF6E9F40016F9F900CDC
:100200007E9F900C1124C8016AE070E00E946D0F7F
:10021000860E971E8CE99FEFC89F5001C99FB00CB6
:10022000D89FB00C1124A00EB11E8E9EC0018F9ECF
:10023000900D9E9E900D1124A80EB91E8BEA92E09F
:10024000BE014AE050E00E94B00C8BEA92E066E00A
:1002500071E00E94C90B8BEA92E0B4014AE050E0E1
:100260000E94B00C8BEA92E066E071E00E94C90B3C
:100270008BEA92E0B5014AE050E00E94B00C8BEAB4
:1002800092E064E071E00E94C90BC701B60120E072
:1002900030E040E050E00E94B70D87FD17C084E6D3
:1002A000681671045CF084EB91E060E070E040E07F
:1002B00050E02C2F00E00E94930216C084EB91E0E6
:1002C00060E070E040E050E020E20BC084E6681699
:1002D0007104ECF484EB91E060E070E040E050E009
:1002E0002DE200E00E946A0284EB91E060E070E0A1
:1002F00041E050E0282D01E00E94930284EB91E060
:1003000060E070E042E050E02A2D00E01AC084EB8B
:1003100091E060E070E040E050E02DE200E00E94FB
:100320006A0284EB91E060E070E041E050E02C2F45
:100330000E94930284EB91E060E070E042E050E0C4
:10034000282D0E949302DF91CF911F910F91FF9072
:10035000EF90DF90CF90BF90AF909F908F907F9065
:100360006F9008950F931F9360ED77E080E090E029
:100370000E94F7080CE012E0C8010E940907C801BA
:100380006BE071E00E94B9070E94AF001F910F91CE
:1003900008950F931F938BEA92E040E855E260E0E6
:1003A00070E00E94860A04EB11E0C80160E070E092
:1003B00040E00E941703C80160E070E044E050E0B4
:1003C0000E94F302C80160E070E00E94BE020CE0EF
:1003D00012E0C8010E944008C8016BE071E04CE0E7
:1003E0000E94ED071F910F9108958F929F92AF92F7
:1003F000BF92CF92DF92EF92FF920F931F93DF9302
:10040000CF9300D0CDB7DEB77C0149832A83660F36
:10041000771F86E590E0E80EF91EF7010081118153
:100420008AEA9FEFE80EF91E000F111F80E090E0AE
:1004300005C0F701E80FF91F108201968017910798
:10044000C4F38981F701E60FF71F81838A818083D6
:10045000F701EC5AFF4F808160E00E94BB09015018
:1004600010406701C00ED11E0F5F1F4F90E5892E0F
:10047000912C8E0C9F1C82E5A82EB12CAE0CBF1CBB
:100480000EC001501040F4018081F501608141E00F
:10049000F60120810E94130A0894C108D1081016A1
:1004A00011067CF384E590E0E80EF91EF7018081E7
:1004B00061E00E94BB090F900F90CF91DF911F91D7
:1004C0000F91FF90EF90DF90CF90BF90AF909F90F3
:1004D0008F9008950F93DC0177FD23C0AA5ABF4F78
:1004E0008D919C911197A655B04068177907CCF46F
:1004F00048305105B0F4E22FF0E0ED5EFE4F208170
:1005000001112068FB0103E0EE0FFF1F0A95E1F7E0
:10051000EA0FFB1FE40FF51F208B4F5FCD010E94F8
:10052000F5010F9108950F93DC0177FD25C0AA5ABC
:10053000BF4F8D919C911197A655B04068177907D0
:10054000DCF448305105C0F42031B0F4E22FF0E083
:10055000ED5EFE4F208101112068FB0183E0EE0F6C
:10056000FF1F8A95E1F7EA0FFB1FE40FF51F208BB1
:100570004F5FCD010E94F5010F910895DF92EF9238
:10058000FF920F931F93CF93DF93EC017B0177FDD5
:1005900022C0CA5ADF4F88819981C655D04068175A
:1005A0007907CCF48B010E5F1F4F53E0000F111F32
:1005B0005A95E1F70C0F1D1FDD24D394F801119219
:1005C0008F01CE01B7014D2D20E00E94F501D3949B
:1005D000F9E0DF1699F7DF91CF911F910F91FF900E
:1005E000EF90DF900895FC01242F77FD0DC0EA5AAB
:1005F000FF4F80819181E655F0406817790724F418
:10060000CF014AE00E94F5010895FC01242F77FDF7
:100610000DC0EA5AFF4F80819181E655F04068177E
:10062000790724F4CF014BE00E94F5010895FC0105
:1006300077FD16C0EA5AFF4F80819181E655F04060
:10064000681779076CF4442331F0CF014CE020E0C7
:100650000E94F5010895CF014CE021E00E94F501D0
:100660000895CF92DF92EF92FF920F931F93CF9353
:10067000DF93EC016B01C05BDF4F69937993499382
:10068000599339832883C455D040C80101970897EE
:1006900010F008E010E0CA5ADF4F19830883C655EE
:1006A000D0408E01005B1F4FF801808161E00E9405
:1006B0009509FE01EE5AFF4F808161E00E94950985
:1006C00074E5E72EF12CEC0EFD1EF701808161E050
:1006D0000E949509F701808161E00E94BB09F80141
:1006E000D182C082FE0180E090E0108A01963196AE
:1006F00080349105D1F700E010E066E5C62ED12CDC
:10070000CC0EDD1E1DC0CE01B8014FE020E00E94DE
:10071000F501CE01B80147E050E00E940503CE018B
:10072000B80149E020E00E94F501CE01B8010E9425
:10073000BE02CE01B80141E00E9417030F5F1F4FB8
:10074000F6018081918108171907ECF2DF91CF91B2
:100750001F910F91FF90EF90DF90CF900895DC01F3
:10076000862F90E0FC01E656FF4FE491EC938A5708
:100770009F4FFC016491E62FF0E0EE0FFF1FE4585D
:10078000FF4F8591949112969C938E9311971B968F
:100790001C921B971D961C921D971C961C921C97D1
:1007A000FD0187E090E012863197009711F00197E4
:1007B000FACF0895FC0113861586148687E090E031
:1007C00012863197009711F00197FACF0895FC0136
:1007D00030E04CE80DC0208198E0822F83273695C9
:1007E00080FD3427915011F02695F7CF3196615056
:1007F000662389F7832F0895DF92EF92FF920F937C
:100800001F93FC01E08001811281F894F80181813D
:100810008E2981838281DE2CD0948D21828383E096
:1008200090E00E945009F80181818D21818389E047
:1008300090E00E945009F8010081789485E390E0EF
:100840000E94500980E010E0FF240E211F21012B9F
:1008500009F081E01F910F91FF90EF90DF900895D4
:10086000EF92FF920F931F93CF93DF937C0101E0F0
:1008700010E0C0E0D0E0C7010E94FC038111102B02
:10088000000F2196C830D105B1F7812FDF91CF91AC
:100890001F910F91FF90EF9008951F93CF93DF93D7
:1008A000FC011081C181D281912F909560FF12C00F
:1008B000F8948A8189238A838981812B89838AE0BC
:1008C00090E00E9450098A81812B8A83789487E383
:1008D00090E011C0F8948A8189238A838981812BD1
:1008E000898381E490E00E9450098A81812B8A8368
:1008F000789485E090E00E945009DF91CF911F919C
:100900000895CF92DF92EF92FF920F931F93CF93B0
:10091000DF938C01E42EFF24F394C0E0D0E0C62ED8
:10092000DD2460E08F2D90E08C219D21892B09F042
:1009300061E0C8010E944D04FF0C2196C830D1052A
:1009400081F7EE20A9F4F894D8011196ED91FC916D
:10095000129791818C918095982391831196ED91B6
:10096000FC91129792818C91809598239283789430
:10097000DF91CF911F910F91FF90EF90DF90CF907B
:1009800008956CEC40E00E9481040895EF92FF927C
:100990000F931F93CF93DF938C017B0165E540E0BC
:1009A0000E948104C0E0D0E0F701EC0FFD1FC801F8
:1009B000608140E00E9481042196C830D105A1F7F2
:1009C000DF91CF911F910F91FF90EF900895DF92EB
:1009D000EF92FF920F931F93CF93DF93FC0100815F
:1009E000C181D281F8948981D02ED0948D218983C0
:1009F00078941DE7E02EFF24115059F182E090E039
:100A00000E945009888190E08E219F21892BA1F3BB
:100A1000F8948A818D218A838981802B89837894B7
:100A200084EF91E00E945009F89489818D21898397
:100A300080E590E00E945009888110E090E0E82273
:100A4000F922EF2809F411E0789484EA91E00E94F9
:100A50005009812FDF91CF911F910F91FF90EF905F
:100A6000DF900895AF92BF92DF92EF92FF920F93C3
:100A70001F93CF93DF93EC015B018D85882309F0F1
:100A800061C0CE010E94E704882329F41B861D86DD
:100A90001C8690E06BC0CE0160EF40E00E948104B4
:100AA00001E0DD24EE24FF24F394CE010E94FC0338
:100AB000182FCE010E94FC03113019F48130E1F4AB
:100AC00039C0181709F58B85081770F460E0FE012E
:100AD000EE0DF11D838190E02F2D30E082239323D2
:100AE000181619064CF003C060E0081729F0093009
:100AF00008F04CC00C874AC0FE01EE0DF11D838149
:100B00008F29838361E009C0612FFE01EE0DF11D85
:100B10009F2D9095838189238383CE010E944D046C
:100B20000F5FFF0C19F4E394FF24F39487E08E1514
:100B300008F0BBCF013430F0DB86DD2011F581E019
:100B40008D871FC01B861D861C8690E0DE0120E07D
:100B500030E0F501E20FF31F13968C911397808319
:100B60002F5F3F4F11962830310599F7892FDF917C
:100B7000CF911F910F91FF90EF90DF90BF90AF90BA
:100B800008958B818823F1F291E0E0CFD02EBDCF84
:100B9000FC018DE896E0918B808B758364831382D2
:100BA00010828FE190E09283818308956F927F920B
:100BB0008F929F92AF92BF92CF92DF92EF92FF926D
:100BC0000F931F93CF93DF93FB01EA01998180E09C
:100BD000288130E0282B392BE081E23231F0E832F5
:100BE00021F0E03109F084C04BC04C814F3329F132
:100BF000403420F44F3109F07BC02FC04F3579F0DD
:100C00004F3709F075C0B901882777FD8095982F77
:100C10000E94560E20E030E040E85DE32EC035959E
:100C20002795B901882777FD8095982F0E94560E49
:100C300020E030E040E05EE320C035952795359513
:100C40002795B901882777FD8095982F0E94560E29
:100C500020E030E040E85EE310C093E03595279552
:100C60009A95E1F7B901882777FD8095982F0E9422
:100C7000560E20E030E040E05FE30E940A0F32C0F1
:100C8000EF8035952795B901882777FD8095982FB6
:100C90000E94560E20E030E040E85EE30E94520DD4
:100CA0003B014C016E2D70E02E81621B710988277B
:100CB00077FD8095982F0E94560E5B016C01FF24F2
:100CC00000E010E0C801B7010E94540E9B01AC0186
:100CD000C601B5010E94BB0D9B01AC01C401B3016B
:100CE0000E94530D9B01AC01832F942F752F00C0E0
:100CF000262F382F492F572FB901CA01DF91CF91E5
:100D00001F910F91FF90EF90DF90CF90BF90AF9029
:100D10009F908F907F906F9008950895EF92FF922B
:100D20000F931F938C017B01FC01848195810E94AC
:100D3000E704F80184819581B7010E94C604F80197
:100D40008481958164EB40E00E948104F8018481F4
:100D500095810E94FC03F82EF801848195810E9400
:100D6000E70480E0FF2009F481E01F910F91FF90DC
:100D7000EF900895EF92FF920F931F93CF93DF931D
:100D8000EC018B017A018C819D810E94E7048C81AA
:100D90009D81B8010E94C6048C819D816EE440E073
:100DA0000E9481048C819D81F701628140E00E9454
:100DB00081048C819D81F701638140E00E94810460
:100DC000F8018081803139F08C819D81F701648147
:100DD00040E00E9481048C819D810E94E7048C8107
:100DE0009D8168E448810E9481048881882331F0D4
:100DF0006AE070E080E090E00E94F7088C819D81BD
:100E00000E94E704DF91CF911F910F91FF90EF9027
:100E100008950F931F938C01FC01848195810E949A
:100E2000E704F801848195810E94C104F80184815E
:100E3000958164E440810E948104F801818192815E
:100E40008F33910551F08F35910561F04F9779F40B
:100E50006EE570E080E090E00EC06CEB70E080E04A
:100E600090E009C067E771E080E090E004C06EEEBA
:100E700072E080E090E00E94F7081F910F910895C2
:100E8000CF92DF92EF92FF920F931F938C016B0131
:100E90007A01FC01848195810E94E704F801848134
:100EA0009581B6010E94C604F801848195816EEB9C
:100EB00040E00E948104F801848195810E94300401
:100EC000F7018083F801848195810E943004F70145
:100ED0008183F801848195810E943004F701828327
:100EE000F801848195810E943004F7018383F80121
:100EF000848195810E943004F7018483F801848104
:100F000095810E943004F7018583F80184819581E1
:100F10000E943004F7018683F801848195810E9444
:100F20003004F7018783F801848195810E943004A1
:100F3000F7018087F801848195810E94E7041F9161
:100F40000F91FF90EF90DF90CF9008950F931F9334
:100F50008A010E944007C80168E00E94E70320E080
:100F6000F8019085891709F421E0822F1F910F91D4
:100F70000895CF92DF92EF92FF920F931F93DF932A
:100F8000CF93CDB7DEB729970FB6F894DEBF0FBE6B
:100F9000CDBF8C017B016E010894C11CD11CA60140
:100FA0000E94A607882329F460E070E08EEF92EC9F
:100FB00005C0C801B701A6010E94D60529960FB643
:100FC000F894DEBF0FBECDBFCF91DF911F910F917F
:100FD000FF90EF90DF90CF900895CF92DF92EF9245
:100FE000FF921F93DF93CF93CDB7DEB729970FB64C
:100FF000F894DEBF0FBECDBF6C017B01142FAE0194
:101000004F5F5F4F0E94A6078823D9F0F7018081C8
:101010008031B9F01A3051F01A3050F01B3021F005
:101020001C3031F48FE705C08FE503C08FE301C0AA
:101030008FE18D83C601B701AE014F5F5F4F0E9404
:10104000BA0629960FB6F894DEBF0FBECDBFCF917A
:10105000DF911F91FF90EF90DF90CF9008950F9355
:101060001F938B01CB0167E00E94E70320E0F801AA
:101070009781891709F421E0822F1F910F9108951C
:101080009F92AF92BF92CF92DF92EF92FF920F9317
:101090001F93DF93CF93CDB7DEB761970FB6F89468
:1010A000DEBF0FBECDBF8C01FC01848195810E9403
:1010B000DA037E010894E11CF11CE9E0AE2EB12CAC
:1010C000AC0EBD1E7FE7C72ED12C992493942DC062
:1010D000C801B7010E942F08882339F1F8018081E7
:1010E000882341F4C801B7010E948E06882311F0BD
:1010F000F8019082C801B701A5010E9440078981CB
:10110000803121F4F801D282C1820BC08D85282F55
:1011100030E0F801818192818217930714F43283C1
:101120002183F80183818F5F8383F8018481958116
:10113000B7010E943205882359F661960FB6F894DC
:10114000DEBF0FBECDBFCF91DF911F910F91FF90FA
:10115000EF90DF90CF90BF90AF909F9008951F9237
:101160000F920FB60F9211242F933F938F939F935B
:10117000AF93BF938091220290912302A091240209
:10118000B0912502309126020196A11DB11D232F99
:101190002D5F2D3720F02D570196A11DB11D2093F5
:1011A00026028093220290932302A0932402B093FC
:1011B000250280911E0290911F02A0912002B09101
:1011C00021020196A11DB11D80931E0290931F0262
:1011D000A0932002B0932102BF91AF919F918F9174
:1011E0003F912F910F900FBE0F901F9018959B016C
:1011F000AC017FB7F89480911E0290911F02A091DC
:101200002002B091210266B5A89B05C06F3F19F07E
:101210000196A11DB11D7FBFBA2FA92F982F882736
:10122000860F911DA11DB11D62E0880F991FAA1F95
:10123000BB1F6A95D1F7BC012DC0FFB7F894809110
:101240001E0290911F02A0912002B0912102E6B5EA
:10125000A89B05C0EF3F19F00196A11DB11DFFBF6E
:10126000BA2FA92F982F88278E0F911DA11DB11D70
:10127000E2E0880F991FAA1FBB1FEA95D1F7861BD2
:10128000970B885E9340C8F2215030404040504058
:1012900068517C4F211531054105510571F60895BE
:1012A000019739F0880F991F880F991F02970197AE
:1012B000F1F70895789484B5826084BD84B5816027
:1012C00084BD85B5826085BD85B5816085BDEEE64E
:1012D000F0E0808181608083E1E8F0E0108280812D
:1012E00082608083808181608083E0E8F0E080819B
:1012F00081608083E1EBF0E0808184608083E0EBBB
:10130000F0E0808181608083EAE7F0E080818460A2
:1013100080838081826080838081816080838081FE
:10132000806880831092C1000895482F50E0CA0160
:1013300086569F4FFC0124914A575F4FFA018491D2
:101340008823C1F0E82FF0E0EE0FFF1FE859FF4FB0
:10135000A591B491662341F49FB7F8948C912095A0
:1013600082238C939FBF08959FB7F8948C91822B12
:101370008C939FBF0895482F50E0CA0182559F4F1C
:10138000FC012491CA0186569F4FFC0134914A57B3
:101390005F4FFA019491992309F444C0222351F13B
:1013A000233071F0243028F42130A1F0223011F5DF
:1013B00014C02630B1F02730C1F02430D9F404C075
:1013C000809180008F7703C0809180008F7D809313
:1013D000800010C084B58F7702C084B58F7D84BD36
:1013E00009C08091B0008F7703C08091B0008F7DDD
:1013F0008093B000E92FF0E0EE0FFF1FEE58FF4F93
:10140000A591B491662341F49FB7F8948C913095DF
:1014100083238C939FBF08959FB7F8948C91832B5F
:101420008C939FBF0895BF92CF92DF92EF92FF926D
:101430000F931F93CF93DF93E82EF62EB42EC7E0C1
:10144000D0E0022F10E087E0C82ED12CBB2059F449
:10145000B6016C1B7D0BC80102C0959587956A95F6
:10146000E2F7BC0107C0B8010C2E02C07595679564
:101470000A94E2F761708E2D0E94BB098F2D61E006
:101480000E94BB098F2D60E00E94BB0921979FEF4E
:10149000CF3FD907D9F6DF91CF911F910F91FF90E0
:1014A000EF90DF90CF90BF9008951F920F920FB6EC
:1014B0000F9211242F933F934F938F939F93EF930A
:1014C000FF934091C600E091A702F091A8023196E7
:1014D0009F012F77307031978091A9029091AA02D5
:1014E0002817390739F0E95DFD4F40833093A80292
:1014F0002093A702FF91EF919F918F914F913F9180
:101500002F910F900FBE0F901F901895CF93DF93E0
:10151000EC019A01AB01E885F985203081EE3807AE
:1015200080E0480780E0580709F449C081E090E076
:101530000A8802C0880F991F0A94E2F7808360E04E
:1015400079E08DE390E00E94A20F215030404040AE
:101550005040CA01B90122E030E040E050E00E9472
:10156000A20FEC81FD813083EE81FF812083EA852B
:10157000FB85208141E050E0CA010E8402C0880F43
:10158000991F0A94E2F7282B2083EA85FB852081A6
:10159000CA010F8402C0880F991F0A94E2F7282B12
:1015A0002083EA85FB858081088802C0440F551F8F
:1015B0000A94E2F7842B8083DF91CF910895108203
:1015C00020E130E0CECFDC011296ED91FC91139733
:1015D000E058FF4F2191319180819181281B390B77
:1015E0002F773070C9010895DC011296ED91FC91BE
:1015F0001397EE57FF4F2081318192918291E058ED
:10160000F0408217930719F42FEF3FEF05C0E20F68
:10161000F31F8081282F30E0C9010895DC01129664
:10162000ED91FC911397DF01AE57BF4F2D913C9187
:101630001197E058FF4F80819181E058F040821768
:10164000930719F42FEF3FEF0BC0E20FF31F8081D8
:101650002F5F3F4F2F7730702D933C93282F30E032
:10166000C9010895DC011296ED91FC911397EE5794
:10167000FF4F80819181929382930895FC01A08510
:10168000B18521898C9190E0022E02C095958795B5
:101690000A94E2F780FFF6CF0484F585E02D60839D
:1016A000089587E991E09093AC028093AB0287E2C2
:1016B00092E09093AE028093AD0285EC90E090931F
:1016C000B0028093AF0284EC90E09093B2028093DA
:1016D000B10280EC90E09093B4028093B30281EC6D
:1016E00090E09093B6028093B50286EC90E09093E0
:1016F000B8028093B70284E08093B90283E08093BC
:10170000BA0287E08093BB0285E08093BC0281E04F
:101710008093BD0208950E945A090E94C9010E9447
:10172000B201FDCF0F931F93CF93DF938C01EB0199
:1017300009C02196D801ED91FC910190F081E02D36
:10174000C801099568816623A1F7DF91CF911F91A8
:101750000F910895EF92FF920F931F93CF93DF9312
:101760008C017B01EA010CC0D7016D917D01D8018C
:10177000ED91FC910190F081E02DC8010995219730
:10178000209791F7DF91CF911F910F91FF90EF90EC
:101790000895DC01ED91FC910280F381E02D099523
:1017A00008952F923F924F925F926F927F928F9205
:1017B0009F92AF92BF92CF92DF92EF92FF920F93E0
:1017C0001F93DF93CF93CDB7DEB7A0970FB6F894F2
:1017D000DEBF0FBECDBF1C016A017B014115510563
:1017E0006105710549F440E350E060E070E020E0FD
:1017F00030E00E947A0C56C0882499245401422E6D
:1018000055246624772401E010E00C0F1D1F080DFD
:10181000191DC701B601A30192010E94800FF801B2
:1018200060830894811C911CA11CB11CC701B601E6
:10183000A30192010E94800FC901DA016C017D01B0
:10184000C114D104E104F104F1F681E0E82EF12C99
:10185000EC0EFD1EE80CF91C3E010894611C711C85
:10186000D501C4010197A109B1096C01C818D908B3
:1018700016C0F601EE0DFF1D40814A3010F4405DA8
:1018800001C0495C552747FD5095652F752FC10153
:1018900020E030E00E947A0C0894E108F1086E1410
:1018A0007F0439F7A0960FB6F894DEBF0FBECDBF08
:1018B000CF91DF911F910F91FF90EF90DF90CF902C
:1018C000BF90AF909F908F907F906F905F904F9060
:1018D0003F902F900895DC012115310541F4ED91E1
:1018E000FC910190F081E02D642F099508950E94EC
:1018F000D10B0895EF92FF920F931F93CF93DF9335
:10190000EC017A018B012115310541F4E881F9815F
:101910000190F081E02D642F09951BC02A3031051C
:10192000B1F477FF10C04DE250E060E070E020E0DD
:1019300030E00E947A0C10950095F094E094E11C40
:10194000F11C011D111DCE01B801A7012AE00E9462
:10195000D10BDF91CF911F910F91FF90EF900895E0
:10196000EF92FF920F931F937B019A010027F7FCE0
:101970000095102FB801A7010E947A0C1F910F91BA
:10198000FF90EF9008959F92AF92BF92CF92DF9217
:10199000EF92FF920F931F93CF93DF93EC017A01A5
:1019A0008B01922ECB01BA0120E030E040E050E004
:1019B0000E94B70D88236CF4CE014DE250E060E048
:1019C00070E020E030E00E947A0C17FB109517F9C8
:1019D000109520E030E040E05FE3AA240BC0CA018C
:1019E000B90120E030E040E251E40E94BB0D9B01D0
:1019F000AC01A394A91498F3C801B7010E94530D38
:101A00005B016C010E94280E7B018C01CE01B801A4
:101A1000A7012AE030E00E946B0C992029F0CE014A
:101A200069E071E00E94C90BC801B7010E94540E21
:101A30009B01AC01C601B5010E94520D22C020E0FD
:101A400030E040E251E40E940A0F7B018C010E94C9
:101A5000230E5B016C01CC24B7FCC094DC2CCE01BE
:101A6000B601A5012AE030E00E947A0CC601B5015A
:101A70000E94560E9B01AC01C801B7010E94520D95
:101A80009A949920E1F6DF91CF911F910F91FF90E9
:101A9000EF90DF90CF90BF90AF909F9008950E94FD
:101AA000C30C08955058BB27AA270ED075C166D124
:101AB00030F06BD120F031F49F3F11F41EF45BC184
:101AC0000EF4E095E7FB51C1E92F77D180F3BA1707
:101AD000620773078407950718F071F49EF58FC1AC
:101AE0000EF4E0950B2EBA2FA02D0B01B901900139
:101AF0000C01CA01A0011124FF27591B99F0593F7D
:101B000050F4503E68F11A16F040A22F232F342FC4
:101B10004427585FF3CF469537952795A795F04012
:101B20005395C9F77EF41F16BA0B620B730B840B27
:101B3000BAF09150A1F0FF0FBB1F661F771F881FDF
:101B4000C2F70EC0BA0F621F731F841F48F4879537
:101B500077956795B795F7959E3F08F0B3CF939526
:101B6000880F08F09927EE0F979587950895D9D09B
:101B700008F481E008950CD00FC107D140F0FED0E9
:101B800030F021F45F3F19F0F0C0511139C1F3C0BA
:101B900014D198F39923C9F35523B1F3951B550B31
:101BA000BB27AA2762177307840738F09F5F5F4F30
:101BB000220F331F441FAA1FA9F333D00E2E3AF071
:101BC000E0E830D091505040E695001CCAF729D08B
:101BD000FE2F27D0660F771F881FBB1F26173707DA
:101BE0004807AB07B0E809F0BB0B802DBF01FF270A
:101BF00093585F4F2AF09E3F510568F0B6C000C170
:101C00005F3FECF3983EDCF3869577956795B79543
:101C1000F7959F5FC9F7880F911D9695879597F95E
:101C20000895E1E0660F771F881FBB1F62177307D7
:101C30008407BA0720F0621B730B840BBA0BEE1FEC
:101C400088F7E095089504D06894B111D9C008953B
:101C5000BCD088F09F5790F0B92F9927B751A0F0CA
:101C6000D1F0660F771F881F991F1AF0BA95C9F730
:101C700012C0B13081F0C3D0B1E00895C0C0672F69
:101C8000782F8827B85F39F0B93FCCF386957795E0
:101C90006795B395D9F73EF49095809570956195C9
:101CA0007F4F8F4F9F4F0895E89409C097FB3EF4F4
:101CB00090958095709561957F4F8F4F9F4F992399
:101CC000A9F0F92F96E9BB279395F6958795779517
:101CD0006795B795F111F8CFFAF4BB0F11F460FFD7
:101CE0001BC06F5F7F4F8F4F9F4F16C0882311F02F
:101CF00096E911C0772321F09EE8872F762F05C043
:101D0000662371F096E8862F70E060E02AF09A95DD
:101D1000660F771F881FDAF7880F9695879597F9D2
:101D20000895990F0008550FAA0BE0E8FEEF16166C
:101D30001706E807F907C0F012161306E407F507BF
:101D400098F0621B730B840B950B39F40A2661F033
:101D5000232B242B252B21F408950A2609F4A140D6
:101D6000A6958FEF811D811D089597F99F6780E8E3
:101D700070E060E008959FEF80EC089500240A94DD
:101D80001616170618060906089500240A94121656
:101D90001306140605060895092E0394000C11F489
:101DA000882352F0BB0F40F4BF2B11F460FF04C036
:101DB0006F5F7F4F8F4F9F4F089557FD9058440F8F
:101DC000551F59F05F3F71F04795880F97FB991F9A
:101DD00061F09F3F79F08795089512161306140657
:101DE000551FF2CF4695F1DF08C0161617061806E4
:101DF000991FF1CF86957105610508940895E894BF
:101E0000BB2766277727CB0197F908958ADF08F467
:101E10008FEF08950BD0C0CFB1DF28F0B6DF18F0F8
:101E2000952309F0A2CFA7CF1124EACFC6DFA0F3F4
:101E3000959FD1F3950F50E0551F629FF001729F5F
:101E4000BB27F00DB11D639FAA27F00DB11DAA1F7E
:101E5000649F6627B00DA11D661F829F2227B00DCB
:101E6000A11D621F739FB00DA11D621F839FA00D56
:101E7000611D221F749F3327A00D611D231F849FA6
:101E8000600D211D822F762F6A2F11249F575040FD
:101E90008AF0E1F088234AF0EE0FFF1FBB1F661F98
:101EA000771F881F91505040A9F79E3F510570F051
:101EB0005CCFA6CF5F3FECF3983EDCF38695779539
:101EC0006795B795F795E7959F5FC1F7FE2B880F4C
:101ED000911D9695879597F9089597FB092E0726EA
:101EE0000AD077FD04D049D006D000201AF47095AE
:101EF00061957F4F0895F6F7909581959F4F0895CE
:101F0000A1E21A2EAA1BBB1BFD010DC0AA1FBB1FFD
:101F1000EE1FFF1FA217B307E407F50720F0A21B6F
:101F2000B30BE40BF50B661F771F881F991F1A94DC
:101F300069F760957095809590959B01AC01BD0106
:101F4000CF01089597FB092E05260ED057FD04D02A
:101F5000D7DF0AD0001C38F4509540953095219574
:101F60003F4F4F4F5F4F0895F6F7909580957095CE
:101F700061957F4F8F4F9F4F0895AA1BBB1B51E167
:101F800007C0AA1FBB1FA617B70710F0A61BB70BE9
:101F9000881F991F5A95A9F780959095BC01CD018E
:101FA0000895EE0FFF1F0590F491E02D0994F89429
:021FB000FFCF61
:101FB200433A20000A002C20002E002806FAA6022E
:101FC2000000587E306D79335B5F707F7B771F0D29
:101FD2003D4F47000000000000000000000000002C
:101FE200000000000000000000000000000000806F
:101FF2000180007E306D79335B5F707F7B00000073
:1020020000000000771F0D3D4F4700370000000E13
:102012000000006700000000000000000000000057
:1020220000000800771F0D3D4F4700370000000EEB
:102032000000006700000000000000000000000037
:10204200000000000000003E0B920BAA0BE30A0EF8
:062052000BF40A320B0042
:00000001FF
