:1000000040C064C063C062C061C060C0B8C85EC0A8
:100010005DC003CA5BC05AC059C058C057C056C063
:1000200055C054C053C000000000370034003100F8
:1000300000000000380035003200000000003600EB
:100040003300300004040404040404040202020225
:10005000020203030303030301020408102040808B
:100060000102040810200102040810200000000012
:100070000000000000030405000000000000000074
:10008000670011241FBECFE5D4E0DEBFCDBF11E075
:10009000A0E6B0E0EAE5FCE102C005900D92AE33C7
:1000A000B107D9F711E0AEE3B1E001C01D92AB3F5B
:1000B000B107E1F710E0C2E8D0E003C02297FE01EB
:1000C000C6DDC038D107D1F75CDBC5CD99CFEF9243
:1000D000FF920F931F938EE3E82E81E0F82EC70165
:1000E00063E0B3D28CE491E06CE070E04BE050E070
:1000F0002AE030E001E010E033D284EA91E0B70179
:10010000A9D41F910F91FF90EF9008956F927F9265
:100110008F929F92AF92BF92CF92DF92EF92FF9217
:100120000F931F93CF93DF933B014C01FFDB9B01A8
:1001300077FF03C0309521953F4FB901882777FDA0
:100140008095982F26DC2DEC3CEC4CE45DE31EDB27
:1001500020E030E040E251E4CCDCE8DB8B019C01A4
:100160007B01CB0164E670E027DDEB01E6EFFFEFFA
:100170006E9F50016F9FB00C7E9FB00C1124C80180
:100180006AE070E019DDA60EB71E8CE99FEFC89FEC
:100190006001C99FD00CD89FD00C1124C00ED11E75
:1001A000AE9EC001AF9E900DBE9E900D1124C80E54
:1001B000D91EC401B30120E030E040E050E04ADB4A
:1001C00087FD16C084E6E816F10454F08CE491E053
:1001D00060E070E040E050E02C2F00E029D115C035
:1001E0008CE491E060E070E040E050E020E20BC081
:1001F00084E6E816F104DCF48CE491E060E070E061
:1002000040E050E02DE200E0EBD08CE491E060E0D3
:1002100070E041E050E02A2D01E00AD18CE491E049
:1002200060E070E042E050E02C2D00E018C08CE46B
:1002300091E060E070E040E050E02DE200E0D0D0DE
:100240008CE491E060E070E041E050E02C2FF0D0D1
:100250008CE491E060E070E042E050E02A2DE8D0CC
:10026000DF91CF911F910F91FF90EF90DF90CF9092
:10027000BF90AF909F908F907F906F9008950F9355
:100280001F9360ED77E080E090E01BD904EA11E075
:10029000C80107D5C80166EB71E0A0D537DF80E65D
:1002A00090E065E0EDD71F910F91089580ED97E004
:1002B00092D884EA91E03FD684EA91E066EB71E05F
:1002C00040E00ED6882309F4FFCF84EA91E066EB84
:1002D00071E04CE0B5D58CE491E060E070E040E086
:1002E00027D18CE491E060E070E048E050E0FED07F
:1002F0008CE491E060E070E0C5D008958F929F9209
:10030000AF92BF92CF92DF92EF92FF920F931F9323
:10031000DF93CF9300D0CDB7DEB77C0149832A832A
:10032000660F771F86E590E0E80EF91EF701008161
:1003300011818AEA9FEFE80EF91E000F111F80E07D
:1003400090E005C0F701E80FF91F108201968017B1
:100350009107C4F38981F701E60FF71F81838A8132
:100360008083F701EC5AFF4F808160E055D901503E
:1003700010406701C00ED11E0F5F1F4F90E5892E00
:10038000912C8E0C9F1C82E5A82EB12CAE0CBF1CAC
:100390000DC001501040F4018081F501608141E001
:1003A000F6012081AFD90894C108D10810161106B2
:1003B00084F384E590E0E80EF91EF701808161E0A6
:1003C0002BD90F900F90CF91DF911F910F91FF903C
:1003D000EF90DF90CF90BF90AF909F908F90089557
:1003E0000F93DC0177FD22C0AA5ABF4F8D919C91DB
:1003F0001197A655B04068177907C4F448305105E5
:10040000A8F4E22FF0E0E355FF4F208101112068AE
:10041000FB0103E0EE0FFF1F0A95E1F7EA0FFB1F58
:10042000E40FF51F208B4F5FCD0168DF0F9108951A
:100430000F93DC0177FD24C0AA5ABF4F8D919C9188
:100440001197A655B04068177907D4F44830510584
:10045000B8F42031A8F4E22FF0E0E355FF4F2081FB
:1004600001112068FB0183E0EE0FFF1F8A95E1F781
:10047000EA0FFB1FE40FF51F208B4F5FCD013EDF1E
:100480000F910895DF92EF92FF920F931F93CF93F6
:10049000DF93EC017B0177FD21C0CA5ADF4F8881D1
:1004A0009981C655D04068177907C4F48B010E5F57
:1004B0001F4F53E0000F111F5A95E1F70C0F1D1F3E
:1004C000DD24D394F80111928F01CE01B7014D2D97
:1004D00020E014DFD394F9E0DF16A1F7DF91CF918C
:1004E0001F910F91FF90EF90DF900895FC01242F52
:1004F00077FD0CC0EA5AFF4F80819181E655F040AC
:10050000681779071CF4CF014AE0F8DE0895FC0172
:10051000242F77FD0CC0EA5AFF4F80819181E65568
:10052000F040681779071CF4CF014BE0E7DE08952F
:10053000FC0177FD14C0EA5AFF4F80819181E65596
:10054000F040681779075CF4442329F0CF014CE0B0
:1005500020E0D4DE0895CF014CE021E0CFDE089505
:10056000CF92DF92EF92FF920F931F93CF93DF937F
:10057000EC016B01C05BDF4F699379934993599309
:1005800039832883C455D040C8010197089710F0DB
:1005900008E010E0CA5ADF4F19830883C655D040DF
:1005A0008E01005B1F4FF801808161E00FD8FE01D2
:1005B000EE5AFF4F808161E009D874E5E72EF12CF7
:1005C000EC0EFD1EF701808161E000D8F70180810B
:1005D00061E022D8F801D182C082FE0180E090E083
:1005E000108A0196319680349105D1F700E010E031
:1005F00066E5C62ED12CCC0EDD1E18C0CE01B8018A
:100600004FE020E07BDECE01B80147E050E07FDF25
:10061000CE01B80149E020E071DECE01B80132DF41
:10062000CE01B80141E084DF0F5F1F4FF6018081EA
:1006300091810817190714F3DF91CF911F910F9142
:10064000FF90EF90DF90CF900895DC01862F90E02F
:10065000FC01E85AFF4FE491EC938C5B9F4FFC0147
:100660006491E62FF0E0EE0FFF1FE65CFF4F8591EF
:10067000949112969C938E9311971B961C921B97A4
:100680001D961C921D971C961C921C97FD0187E0DD
:1006900090E012863197009711F00197FACF0895F4
:1006A000FC0113861586148687E090E01286319748
:1006B000009711F00197FACF0895FC0130E04CE863
:1006C0000DC0208198E0822F8327369580FD342746
:1006D000915011F02695F7CF31966150662389F736
:1006E000832F0895DF92EF92FF920F931F93FC01E7
:1006F000E08001811281F894F80181818E29818343
:100700008281DE2CD0948D21828383E090E034D7E7
:10071000F80181818D21818389E090E02DD7F80156
:100720000081789485E390E027D780E010E0FF24F3
:100730000E211F21012B09F081E01F910F91FF90E5
:10074000EF90DF900895EF92FF920F931F93CF9356
:10075000DF937C0101E010E0C0E0D0E0C701C2DF20
:100760008111102B000F2196C830D105B9F7812FC8
:10077000DF91CF911F910F91FF90EF9008951F93FC
:10078000CF93DF93FC011081C181D281912F90958D
:1007900060FF11C0F8948A8189238A838981812B23
:1007A00089838AE090E0E8D68A81812B8A837894D5
:1007B00087E390E010C0F8948A8189238A83898135
:1007C000812B898381E490E0D7D68A81812B8A832B
:1007D000789485E090E0D0D6DF91CF911F91089575
:1007E000CF92DF92EF92FF920F931F93CF93DF93FD
:1007F0008C01E42EFF24F394C0E0D0E0C62EDD246B
:1008000060E08F2D90E08C219D21892B09F061E023
:10081000C801B5DFFF0C2196C830D10589F7EE205D
:10082000A9F4F894D8011196ED91FC911297918159
:100830008C918095982391831196ED91FC9112975C
:1008400092818C918095982392837894DF91CF91B7
:100850001F910F91FF90EF90DF90CF9008956CEC77
:1008600040E0BEDF0895EF92FF920F931F93CF9366
:10087000DF938C017B0165E540E0B2DFC0E0D0E0B2
:10088000F701EC0FFD1FC801608140E0A9DF219650
:10089000C830D105A9F7DF91CF911F910F91FF903B
:1008A000EF900895DF92EF92FF920F931F93CF93F3
:1008B000DF93FC010081C181D281F8948981D02E1F
:1008C000D0948D21898378941DE7E02EFF24115068
:1008D00039F182E090E050D6888190E08E219F210E
:1008E000892BA9F3F8948A818D218A838981802BB1
:1008F0008983789484EF91E03FD6F89489818D21A3
:10090000898380E590E038D6888110E090E0E82285
:10091000F922EF2809F411E0789484EA91E02CD6CA
:10092000812FDF91CF911F910F91FF90EF90DF907A
:100930000895AF92BF92DF92EF92FF920F931F93B1
:10094000CF93DF93EC015B018D85882309F05CC0B8
:10095000CE01A8DF882329F41B861D861C8690E023
:1009600067C0CE0160EF40E03BDF01E0DD24EE2414
:10097000FF24F394CE01B6DE182FCE01B3DE113082
:1009800019F48130E1F438C0181709F58B85081780
:1009900070F460E0FE01EE0DF11D838190E02F2DDB
:1009A00030E082239323181619064CF003C060E050
:1009B000081729F0093008F04BC00C8749C0FE0128
:1009C000EE0DF11D83818F29838361E009C0612FC2
:1009D000FE01EE0DF11D9F2D909583818923838368
:1009E000CE01CDDE0F5FFF0C19F4E394FF24F394E6
:1009F00087E08E1508F0BECF013430F0DB86DD20B5
:100A000011F581E08D871FC01B861D861C8690E036
:100A1000DE0120E030E0F501E20FF31F13968C9128
:100A2000139780832F5F3F4F11962830310599F738
:100A3000892FDF91CF911F910F91FF90EF90DF9061
:100A4000BF90AF9008958B818823F1F291E0E0CFC1
:100A5000D02EBECFFC0184EE95E0918B808B758308
:100A60006483138210828FE190E0928381830895E2
:100A70006F927F928F929F92AF92BF92CF92DF92AE
:100A8000EF92FF920F931F93CF93DF93FB01EA0145
:100A9000998180E0288130E0282B392BE081E232F7
:100AA00031F0E83221F0E03109F079C046C04C81E4
:100AB0004F3319F1403420F44F3109F070C02CC08D
:100AC0004F3571F04F3709F06AC0B901882777FDBB
:100AD0008095982F5ED720E030E040E85DE32BC0A2
:100AE00035952795B901882777FD8095982F51D79F
:100AF00020E030E040E05EE31EC035952795359557
:100B00002795B901882777FD8095982F42D720E057
:100B100030E040E85EE30FC093E0359527959A9565
:100B2000E1F7B901882777FD8095982F32D720E02B
:100B300030E040E05FE3DDD72CC0EF8035952795AE
:100B4000B901882777FD8095982F23D720E030E0E2
:100B500040E85EE31AD63B014C016E2D70E02E8119
:100B6000621B7109882777FD8095982F12D75B014A
:100B70006C01FF2400E010E0C801B70108D79B0119
:100B8000AC01C601B5016AD69B01AC01C401B30139
:100B9000FDD59B01AC01832F942F752F00C0262F0C
:100BA000382F492F572FB901CA01DF91CF911F91DB
:100BB0000F91FF90EF90DF90CF90BF90AF909F90FC
:100BC0008F907F906F9008950895EF92FF920F930A
:100BD0001F938C017B01FC018481958163DEF80108
:100BE00084819581B7013FDEF8018481958164EBB2
:100BF00040E0F6DDF8018481958174DDF82EF8017E
:100C0000848195814FDE80E0FF2009F481E01F910F
:100C10000F91FF90EF900895EF92FF920F931F9323
:100C2000CF93DF93EC018B017A018C819D813ADEB9
:100C30008C819D81B80117DE8C819D816EE440E03E
:100C4000CFDD8C819D81F701628140E0C9DD8C811F
:100C50009D81F701638140E0C3DDF801808180312F
:100C600031F08C819D81F701648140E0B9DD8C8198
:100C70009D8118DE8C819D8168E44881B1DD888189
:100C8000882329F06AE070E080E090E01AD48C813B
:100C90009D8108DEDF91CF911F910F91FF90EF9022
:100CA00008950F931F938C01FC0184819581FADDD7
:100CB000F80184819581D3DDF8018481958164E414
:100CC00040818EDDF801818192818F33910551F051
:100CD0008F35910561F04F9779F46EE570E080E013
:100CE00090E00EC06CEB70E080E090E009C067E738
:100CF00071E080E090E004C06EEE72E080E090E091
:100D0000E0D31F910F910895CF92DF92EF92FF925F
:100D10000F931F938C016B017A01FC0184819581F3
:100D2000C1DDF80184819581B6019DDDF8018481E2
:100D300095816EEB40E054DDF8018481958103DDFF
:100D4000F7018083F80184819581FDDCF7018183BF
:100D5000F80184819581F7DCF7018283F8018481B1
:100D60009581F1DCF7018383F80184819581EBDCC7
:100D7000F7018483F80184819581E5DCF70185839F
:100D8000F80184819581DFDCF7018683F801848195
:100D90009581D9DCF7018783F80184819581D3DCC3
:100DA000F7018087F801848195817CDD1F910F9187
:100DB000FF90EF90DF90CF9008950F931F938A01DB
:100DC000A3DFC80168E079DC20E0F801908589178D
:100DD00009F421E0822F1F910F910895CF92DF92A5
:100DE000EF92FF920F931F93DF93CF93CDB7DEB7B0
:100DF00029970FB6F894DEBF0FBECDBF8C017B01E3
:100E00006E010894C11CD11CA601D7DF882329F4E8
:100E100060E070E08EEF92EC04C0C801B701A6015B
:100E200027DE29960FB6F894DEBF0FBECDBFCF9157
:100E3000DF911F910F91FF90EF90DF90CF90089579
:100E4000CF92DF92EF92FF921F93DF93CF93CDB7B4
:100E5000DEB729970FB6F894DEBF0FBECDBF6C0189
:100E60007B01142FAE014F5F5F4FA7DF8823D1F0C6
:100E7000F70180818031B1F01A3051F01A3050F012
:100E80001B3021F01C3031F48FE705C08FE503C023
:100E90008FE301C08FE18D83C601B701AE014F5FC3
:100EA0005F4FBADE29960FB6F894DEBF0FBECDBFF6
:100EB000CF91DF911F91FF90EF90DF90CF90089539
:100EC0000F931F938B01CB0167E0F7DB20E0F80164
:100ED0009781891709F421E0822F1F910F910895BE
:100EE000EF92FF920F931F93CF93DF93EC017B015F
:100EF000042F8C819D81D4DB10E006C0CE01B701A8
:100F0000DFDF8823A1F009C08C819D81B70111DD4D
:100F1000882329F0101759F4F1CF81E001C080E057
:100F2000DF91CF911F910F91FF90EF9008951F5F78
:100F30000117A8F3E9CF9F92AF92BF92CF92DF92B1
:100F4000EF92FF920F931F93DF93CF93CDB7DEB74E
:100F500061970FB6F894DEBF0FBECDBF8C01FC01C8
:100F6000848195819DDB7E010894E11CF11CE9E000
:100F7000AE2EB12CAC0EBD1E7FE7C72ED12C99240E
:100F800093942AC0C801B7019BDF882329F1F80197
:100F90008081882339F4C801B70117DE882311F056
:100FA000F8019082C801B701A501AEDE89818031C8
:100FB00021F4F801D282C1820BC08D85282F30E048
:100FC000F801818192818217930714F4328321837F
:100FD000F80183818F5F8383F80184819581B70154
:100FE000A8DC882379F661960FB6F894DEBF0FBEB1
:100FF000CDBFCF91DF911F910F91FF90EF90DF90C8
:10100000CF90BF90AF909F9008952091DE01222352
:1010100029F08091E9018F5F8093E9018091EA01D5
:101020009091EB01281759F0903510F08DE101C037
:101030008BE0890F8093EB012093EA0103C09C5E53
:101040009093EB019091EB01903A08F488C02091C5
:10105000EC013091ED01369527953093ED01209309
:10106000EC018091E901853028F038603093ED0182
:101070002093EC01905A9093EB011092E90180913A
:10108000E701882309F45BC08091EE018F5F8093B4
:10109000EE018C3008F463C02091EC013091ED0139
:1010A000922F9F73ADE2B1E0FD0140E0808198177F
:1010B00029F04F5F31964031C9F740E086E0369520
:1010C00027958A95E1F790E08C91281729F09F5F8A
:1010D00011969031C9F790E0242F2295207F292B7B
:1010E0008091BF01882371F42093EF01822F8450F7
:1010F0008B3140F01092E7018091F0018F5F809377
:10110000F00108958091BF01E82FF0E0E054FE4F18
:1011100020838F5F8093BF019091BF018091EF0189
:10112000981750F01092E7018091F1018F5F809342
:10113000F10181E08093BE011092EE01089580914B
:10114000EC019091ED0188539B4049F481E080933C
:10115000E7011092EE011092BF011092BE010895B6
:101160008091AC006091E80157D28091670060E007
:1011700053D21092DF0181E08093E60108951F921F
:101180000F920FB60F9211242F933F934F935F93BB
:101190006F937F938F939F93AF93BF93EF93FF933F
:1011A0008091660076D28093DE018091DF018823F2
:1011B000C1F18091E0018F5F8093E001815089F55A
:1011C000E091E1018091E201E81758F0C9DF8091D8
:1011D000E3019091E40101969093E4018093E3018F
:1011E00020C0809167009091E50121E030E0092E58
:1011F00002C0220F331F0A94E2F7F0E0E859FF4FD4
:10120000608162239F5F9093E50106D28091E501A2
:10121000863038F01092E5018091E1018F5F809374
:10122000E1018091E001883010F01092E00180919E
:10123000E6018111EADEFF91EF91BF91AF919F919D
:101240008F917F916F915F914F913F912F910F906F
:101250000FBE0F901F9018951F931092E1011092EE
:10126000E5011092E0011092E6016091E80111E0C1
:1012700061278091AC00D0D11093DF011F910895B8
:10128000CF93DF93482F562F6C3110F080E0A0C031
:101290008091DF018823E1F7A52FAD5F6FEF7FEF2E
:1012A0006A27062E6295607F6025072E762F62954D
:1012B0006F700626669576276727660F660F660F9E
:1012C0006025B0E0FD0124E0F595E7952A95E1F76A
:1012D000E35DFE4F808180937000AF70B070A35DBE
:1012E000BE4F8C9180937100C2E7D0E0242F392F3C
:1012F000C901DC0125C0EC916E27062E6295607F46
:101300006025072E762F62956F70062666957627E4
:101310006727660F660F660F6025F0E094E0F5958D
:10132000E7959A95E1F7E35DFE4F80818883ED9123
:10133000F0E0EF70F070E35DFE4F808189832296CC
:101340008A2F841B8517B8F25F5F550F9B0120958C
:101350003095A52FB0E0A059BF4FF90184E0F69574
:10136000E7958A95E1F7EF70F070E35DFE4F8081BD
:101370008C93A52FAF5F8A2F90E080599F4FF90182
:10138000EF70F070E35DFE4F4081FC014083AF5F82
:101390008A2F90E080599F4FF901EF2FFF27E295A8
:1013A000EF70E35DFE4F4081FC014083AF5FB0E032
:1013B000A059BF4F232F33272F703070235D3E4F2E
:1013C000F90180818C93545F5093E20145DF81E005
:1013D000DF91CF9108959C0140E050E060E472E419
:1013E0008FE090E0FCD31FBC89E08EBD3BBD2ABDE1
:1013F00089B7806189BF8091670061E0E7D0809103
:10140000660060E0E3D08091AC0061E0DFD08091C5
:10141000AC006091E80100D108951F920F920FB6C1
:101420000F9211242F933F934F935F936F937F936A
:101430008F939F93AF93BF932091F6013091F70163
:101440004091F8015091F9017091FA01DA01C90156
:101450000296A11DB11D672F6A5F6D3730F06D5781
:10146000DA01C9010396A11DB11D6093FA018093B1
:10147000F6019093F701A093F801B093F9018091E0
:10148000F2019091F301A091F401B091F501019660
:10149000A11DB11D8093F2019093F301A093F4017B
:1014A000B093F501BF91AF919F918F917F916F9113
:1014B0005F914F913F912F910F900FBE0F901F9012
:1014C00018959B01AC017FB7F8948091F20190913F
:1014D000F301A091F401B091F50162B708B600FEE6
:1014E00005C06F3F19F00196A11DB11D7FBFBA2F36
:1014F000A92F982F8827860F911DA11DB11D63E08C
:10150000880F991FAA1FBB1F6A95D1F7BC012EC077
:10151000FFB7F8948091F2019091F301A091F4014A
:10152000B091F501E2B708B600FE05C0EF3F19F033
:101530000196A11DB11DFFBFBA2FA92F982F882793
:101540008E0F911DA11DB11DE3E0880F991FAA1FE9
:10155000BB1FEA95D1F7861B970B885E9340C0F2BC
:10156000215030404040504068517C4F211531059A
:101570004105510569F60895019739F0019729F061
:10158000880F991F01970197F1F70895789483B711
:10159000826083BF83B7816083BF89B7816089BF61
:1015A0001EBC8EB582608EBD8EB581608EBD8FB53E
:1015B00081608FBD85B5846085BD85B5806485BD3E
:1015C000329A319A309A379A1AB80895482F50E0D3
:1015D000CA01885A9F4FFC0124914C5B5F4FFA016E
:1015E00084918823C1F0E82FF0E0EE0FFF1FEA5D41
:1015F000FF4FA591B491662341F49FB7F8948C9165
:10160000209582238C939FBF08959FB7F8948C9167
:10161000822B8C939FBF0895482F50E0CA018459B4
:101620009F4FFC012491CA01885A9F4FFC013491BD
:101630004C5B5F4FFA019491992351F1222381F081
:10164000243039F0253049F0233051F48FB58F77AD
:1016500002C08FB58F7D8FBD03C085B58F7D85BDE1
:10166000E92FF0E0EE0FFF1FE05DFF4FA591B49171
:10167000662341F49FB7F8948C91309583238C9323
:101680009FBF08959FB7F8948C91832B8C939FBF35
:101690000895682F70E0CB0184599F4FFC0124917D
:1016A000CB01885A9F4FFC0144916C5B7F4FFB013B
:1016B0009491992319F420E030E022C0222381F094
:1016C000243039F0253049F0233051F48FB58F772D
:1016D00002C08FB58F7D8FBD03C085B58F7D85BD61
:1016E000892F90E0880F991F865C9F4FFC01A59180
:1016F000B4918C9120E030E0842311F021E030E0BF
:10170000C9010895BF92CF92DF92EF92FF920F939B
:101710001F93CF93DF93E82EF62EB42EC7E0D0E0D0
:10172000022F10E087E0C82ED12CBB2059F4B6015F
:101730006C1B7D0BC80102C0959587956A95E2F7F1
:10174000BC0107C0B8010C2E02C0759567950A94BC
:10175000E2F761708E2D60DF8F2D61E05DDF8F2DF0
:1017600060E05ADF21979FEFCF3FD907F1F6DF9175
:10177000CF911F910F91FF90EF90DF90CF90BF908E
:10178000089504DF93D57BD5FECF5058BB27AA27F9
:101790000ED075C166D130F06BD120F031F49F3F8F
:1017A00011F41EF45BC10EF4E095E7FB51C1E92F83
:1017B00077D180F3BA17620773078407950718F08B
:1017C00071F49EF58FC10EF4E0950B2EBA2FA02D6B
:1017D0000B01B90190010C01CA01A0011124FF27DE
:1017E000591B99F0593F50F4503E68F11A16F040D9
:1017F000A22F232F342F4427585FF3CF46953795D8
:101800002795A795F0405395C9F77EF41F16BA0B9C
:10181000620B730B840BBAF09150A1F0FF0FBB1F4A
:10182000661F771F881FC2F70EC0BA0F621F731F93
:10183000841F48F4879577956795B795F7959E3FF0
:1018400008F0B3CF9395880F08F09927EE0F97957E
:1018500087950895D9D008F481E008950CD00FC180
:1018600007D140F0FED030F021F45F3F19F0F0C016
:10187000511139C1F3C014D198F39923C9F35523F9
:10188000B1F3951B550BBB27AA2762177307840773
:1018900038F09F5F5F4F220F331F441FAA1FA9F329
:1018A00033D00E2E3AF0E0E830D091505040E6951B
:1018B000001CCAF729D0FE2F27D0660F771F881F7C
:1018C000BB1F261737074807AB07B0E809F0BB0B6B
:1018D000802DBF01FF2793585F4F2AF09E3F51058F
:1018E00068F0B6C000C15F3FECF3983EDCF386952C
:1018F00077956795B795F7959F5FC9F7880F911D05
:101900009695879597F90895E1E0660F771F881FF0
:10191000BB1F621773078407BA0720F0621B730BA3
:10192000840BBA0BEE1F88F7E095089504D06894F5
:10193000B111D9C00895BCD088F09F5790F0B92F4D
:101940009927B751A0F0D1F0660F771F881F991F14
:101950001AF0BA95C9F712C0B13081F0C3D0B1E026
:101960000895C0C0672F782F8827B85F39F0B93F36
:10197000CCF3869577956795B395D9F73EF4909516
:101980008095709561957F4F8F4F9F4F0895E89494
:1019900009C097FB3EF490958095709561957F4FB7
:1019A0008F4F9F4F9923A9F0F92F96E9BB27939565
:1019B000F695879577956795B795F111F8CFFAF475
:1019C000BB0F11F460FF1BC06F5F7F4F8F4F9F4FA6
:1019D00016C0882311F096E911C0772321F09EE804
:1019E000872F762F05C0662371F096E8862F70E06A
:1019F00060E02AF09A95660F771F881FDAF7880F44
:101A00009695879597F90895990F0008550FAA0B99
:101A1000E0E8FEEF16161706E807F907C0F0121601
:101A20001306E407F50798F0621B730B840B950B04
:101A300039F40A2661F0232B242B252B21F4089559
:101A40000A2609F4A140A6958FEF811D811D0895F6
:101A500097F99F6780E870E060E008959FEF80EC61
:101A6000089500240A941616170618060906089504
:101A700000240A9412161306140605060895092E6A
:101A80000394000C11F4882352F0BB0F40F4BF2BD9
:101A900011F460FF04C06F5F7F4F8F4F9F4F089519
:101AA00057FD9058440F551F59F05F3F71F047950F
:101AB000880F97FB991F61F09F3F79F087950895F4
:101AC000121613061406551FF2CF4695F1DF08C013
:101AD000161617061806991FF1CF86957105610530
:101AE00008940895E894BB2766277727CB0197F9D8
:101AF00008950BD0C4CFB5DF28F0BADF18F09523D6
:101B000009F0A6CFABCF1124EECFCADFA0F3959F8B
:101B1000D1F3950F50E0551F629FF001729FBB27D4
:101B2000F00DB11D639FAA27F00DB11DAA1F649F80
:101B30006627B00DA11D661F829F2227B00DA11D33
:101B4000621F739FB00DA11D621F839FA00D611DB9
:101B5000221F749F3327A00D611D231F849F600DDA
:101B6000211D822F762F6A2F11249F5750408AF013
:101B7000E1F088234AF0EE0FFF1FBB1F661F771F9F
:101B8000881F91505040A9F79E3F510570F060CFDB
:101B9000AACF5F3FECF3983EDCF386957795679587
:101BA000B795F795E7959F5FC1F7FE2B880F911DBD
:101BB0009695879597F9089597FB092E07260AD0E1
:101BC00077FD04D02ED006D000201AF470956195D0
:101BD0007F4F0895F6F7909581959F4F0895A1E264
:101BE0001A2EAA1BBB1BFD010DC0AA1FBB1FEE1F97
:101BF000FF1FA217B307E407F50720F0A21BB30BE2
:101C0000E40BF50B661F771F881F991F1A9469F75D
:101C100060957095809590959B01AC01BD01CF01B9
:101C20000895AA1BBB1B51E107C0AA1FBB1FA61723
:101C3000B70710F0A61BB70B881F991F5A95A9F775
:101C400080959095BC01CD010895EE0FFF1F059082
:0A1C5000F491E02D0994F894FFCF01
:101C5A0068656C6C6F000B0C2A2A2A2A2A2A382CEF
:101C6A00000000000000000000000000000000006A
:101C7A00000000000000000000000000000000005A
:101C8A00000000000000000000000000000000004A
:101C9A000000000000000000000000000A7E306D15
:101CAA0079335B5F707F7B771F0D3D4F47000000E4
:101CBA00000000000000000000000000000000001A
:101CCA00000000000000000000800180007E306DEE
:101CDA0079335B5F707F7B00000000000000771F94
:101CEA000D3D4F4700370000000E0000006700005E
:101CFA000000000000000000000000000800771F3C
:101D0A000D3D4F4700370000000E0000006700003D
:101D1A00000000000000000000000000000D0E138B
:0E1D2A001516191A1C232526292A2C323400DE
:00000001FF
