:100000000C9462000C948A000C948A000C948A0070
:100010000C948A000C948A000C948A000C948A0038
:100020000C948A000C948A000C948A000C948A0028
:100030000C948A000C948A000C948A000C948A0018
:100040000C94DA010C948A000C944E030C948A00F0
:100050000C948A000C948A000C948A000C948A00F8
:100060000C948A000C948A000000000024002700F1
:100070002A0000000000250028002B0000000000DE
:1000800023002600290004040404040404040202DA
:100090000202020203030303030301020408102007
:1000A0004080010204081020010204081020000012
:1000B0000007000201000003040600000000000029
:1000C0000000970411241FBECFEFD8E0DEBFCDBFE4
:1000D00011E0A0E0B1E0E4E8FDE002C005900D927F
:1000E000A233B107D9F711E0A2E3B1E001C01D923C
:1000F000AA3DB107E1F710E0C4ECD0E004C02297BC
:10010000FE010E94BC06C23CD107C9F70E94D30180
:100110000C94C0060C940000AF92BF92CF92DF9275
:10012000EF92FF920F931F93CF93DF9380E00E9493
:100130006A02909335018093340100D000D0AA2741
:1001400097FDA095BA2F20912501309126014427D3
:1001500037FD4095542FE0903801F0903901002789
:10016000F7FC0095102FFEEFAF2EB12CC12CD12C37
:10017000EDB7FEB7A182B282C382D482BC01CD01A9
:10018000AA24BB2465010E94EE05CB010F900F90BD
:100190000F900F906F3F710514F08EEF90E097FF76
:1001A00002C080E090E0909335018093340163E3D6
:1001B00070E00E94560670933301609332010BE1A8
:1001C00011E0C0E0D0E008C0F801808161E00E9449
:1001D000010321960E5F1F4FA0913201B0913301B0
:1001E000CA17DB078CF300D000D060913401709106
:1001F0003501882777FD8095982FE3E3F0E0AE9FE7
:100200009001AF9F300DBE9F300D1124442737FD64
:100210004095542F1196AE9F7001AF9FF00CBE9F7A
:10022000F00C11240027F7FC0095102FEEEFAE2EF6
:10023000B12CC12CD12CEDB7FEB7A182B282C38202
:10024000D482AA24BB2465010E94EE059B01AC0167
:1002500070933701609336010F900F900F900F90BD
:10026000E0913201F0913301EE0FFF1FE55EFE4F8A
:100270008081B9010E9488020091320110913301FE
:10028000E801CC0FDD1FC35EDE4F05C0888160E052
:100290000E94010322960F5F1F4F05301105B4F332
:1002A00087EC91E060E071E00E9408056091340104
:1002B0007091350187EC91E00E94E60587EC91E0B2
:1002C00069E071E00E94080560913201709133018C
:1002D00087EC91E00E94E60587EC91E063E171E034
:1002E0000E940805609136017091370187EC91E01A
:1002F0000E94E60587EC91E00E941005DF91CF9106
:100300001F910F91FF90EF90DF90CF90BF90AF9033
:100310000895CF93DF938DE061E00E94E1028DE0CC
:1003200061E00E9401031EC080E00E946A029C01FD
:100330009093350180933401809138019091390177
:100340008217930724F43093390120933801809168
:100350002501909126012817390724F430932601AE
:10036000209325010E9422026858734180409040EA
:10037000D8F2CBE1D1E0888161E00E94E1022296CF
:1003800081E0C532D807B9F78DE060E00E94010333
:1003900087EC91E040E855E260E070E00E948B035A
:1003A000DF91CF9108950E9430020E9489010E943E
:1003B0008C00FDCF1F920F920FB60F9211242F9336
:1003C0003F938F939F93AF93BF9380913E01909102
:1003D0003F01A0914001B09141013091420101964D
:1003E000A11DB11D232F2D5F2D3720F02D57019614
:1003F000A11DB11D2093420180933E0190933F01C6
:10040000A0934001B093410180913A0190913B014A
:10041000A0913C01B0913D010196A11DB11D8093B9
:100420003A0190933B01A0933C01B0933D01BF91F1
:10043000AF919F918F913F912F910F900FBE0F9091
:100440001F9018958FB7F89420913E0130913F018D
:1004500040914001509141018FBFB901CA010895F7
:10046000789484B5826084BD84B5816084BD85B58F
:10047000826085BD85B5816085BDEEE6F0E0808156
:1004800081608083E1E8F0E0808182608083808108
:1004900081608083E0E8F0E0808181608083E1EB2F
:1004A000F0E0808184608083E0EBF0E08081816017
:1004B0008083EAE7F0E080818460808380818260CD
:1004C00080838081816080838081806880831092B6
:1004D000C10008958F70909127019295990F990FFF
:1004E000907C982B90937C0080917A00806480931C
:1004F0007A0080917A0086FDFCCF209178004091AF
:100500007900942F80E030E0282B392BC901089521
:100510001F93CF93DF93182FEB0161E00E94E1025C
:10052000E12FF0E0E255FF4F8491833051F4809148
:100530008000806880938000D0938900C0938800F9
:100540003CC0843051F480918000806280938000B0
:10055000D0938B00C0938A0030C0813039F420974B
:1005600029F184B5806884BDC7BD27C0823039F4C5
:100570002097E1F084B5806284BDC8BD1EC086307E
:1005800041F48091B00080688093B000C093B300C4
:1005900014C0873041F48091B00080628093B00035
:1005A000C093B4000AC0C038D1051CF4812F60E0AC
:1005B00002C0812F61E00E940103DF91CF911F9162
:1005C0000895282F30E0C90186569F4FFC01949171
:1005D0002A573F4FF9018491882391F0E82FF0E0EA
:1005E000EE0FFF1FE859FF4FA591B491662329F440
:1005F0008C91909589238C9308958C91892B8C9361
:100600000895482F50E0CA0182559F4FFC01249164
:10061000CA0186569F4FFC0194914A575F4FFA01D9
:1006200034913323D1F1222331F1233021F480910D
:1006300080008F7705C0243031F4809180008F7D59
:100640008093800018C0213019F484B58F7704C0DE
:10065000223021F484B58F7D84BD0DC0263021F475
:100660008091B0008F7705C0273029F48091B000C9
:100670008F7D8093B000E32FF0E0EE0FFF1FEE5868
:10068000FF4FA591B491662329F48C91909589230D
:100690008C9308958C91892B8C9308951F920F92BF
:1006A0000FB60F9211242F933F934F935F936F9345
:1006B0007F938F939F93AF93BF93EF93FF9340915B
:1006C000C600E091C301F091C401CF01019660E83A
:1006D00070E00E9456069C018091C5019091C60170
:1006E0002817390739F0ED5BFE4F40833093C40182
:1006F0002093C301FF91EF91BF91AF919F918F9193
:100700007F916F915F914F913F912F910F900FBE0D
:100710000F901F9018955F926F927F928F929F9289
:10072000AF92BF92CF92DF92EF92FF920F931F93FF
:10073000CF93DF93EC013A014B01413482E4580737
:100740008FE0680780E078070CF07FC060E874E80D
:100750008EE190E0A40193010E948B06215030406D
:1007600040405040CA01B90122E030E040E050E092
:100770000E948B0659016A01A601950120953095CA
:100780004095509594E0220F331F441F551F9A95B2
:10079000D1F760E074E284EF90E00E948B06CA011A
:1007A000B9012FEF30E040E050E00E943706A4018D
:1007B00093010E948B06C90181509F4F181619069C
:1007C0001CF4522E5A9403C055245394521A60E0DC
:1007D00079E08DE390E0A40193010E948B06215003
:1007E000304040405040CA01B90122E030E040E0D2
:1007F00050E00E948B06209530954095509583E0FF
:10080000220F331F441F551F8A95D1F760E074E211
:1008100084EF90E00E948B06CA01B9012FEF30E00F
:1008200040E050E00E943706A40193010E948B062D
:10083000C90181509F4F181619061CF4822F815050
:1008400002C081E0821B851500F5E885F98581E00D
:1008500090E00A8802C0880F991F0A94E2F780830B
:1008600060E079E08DE390E0A40193010E948B06A3
:100870002150304040405040CA01B90122E030E0F0
:1008800040E050E00E948B0604C0E885F9851082A4
:100890009501EC81FD813083EE81FF812083EA8523
:1008A000FB85208141E050E0CA010E8402C0880F20
:1008B000991F0A94E2F7282B2083EA85FB85208183
:1008C000CA010F8402C0880F991F0A94E2F7282BEF
:1008D0002083EA85FB858081088802C0440F551F6C
:1008E0000A94E2F7842B8083DF91CF911F910F91BF
:1008F000FF90EF90DF90CF90BF90AF909F908F9040
:100900007F906F905F900895FC01A085B18521894B
:100910008C9190E0022E02C0959587950A94E2F79B
:1009200080FFF6CF0484F585E02D608308958CE286
:1009300091E09093C8018093C70183E491E0909384
:10094000CA018093C90185EC90E09093CC0180931B
:10095000CB0184EC90E09093CE018093CD0180ECAC
:1009600090E09093D0018093CF0181EC90E0909340
:10097000D2018093D10186EC90E09093D4018093D2
:10098000D30184E08093D50183E08093D60187E092
:100990008093D70185E08093D80181E08093D901CD
:1009A00008950F931F93CF93DF938C01EB0109C040
:1009B0002196D801ED91FC910190F081E02DC801C4
:1009C000099568816623A1F7DF91CF911F910F915F
:1009D0000895EF92FF920F931F93CF93DF938C01B3
:1009E0007B01EA010CC0D7016D917D01D801ED9129
:1009F000FC910190F081E02DC80109952197209785
:100A000091F7DF91CF911F910F91FF90EF90089593
:100A1000DC01ED91FC910280F381E02D09950895B0
:100A20000F931F938C01DC01ED91FC910190F081FB
:100A3000E02D6DE00995D801ED91FC910190F081D8
:100A4000E02DC8016AE009951F910F9108952F923A
:100A50003F924F925F926F927F928F929F92AF924E
:100A6000BF92CF92DF92EF92FF920F931F93DF938B
:100A7000CF93CDB7DEB7A0970FB6F894DEBF0FBE09
:100A8000CDBF1C016A017B0141155105610571054E
:100A900049F4DC01ED91FC910190F081E02D60E3DF
:100AA000099554C0882499245401422E5524662463
:100AB000772401E010E00C0F1D1F080D191DC70160
:100AC000B601A30192010E946906F80160830894AF
:100AD000811C911CA11CB11CC701B601A30192018C
:100AE0000E946906C901DA016C017D01C114D104BB
:100AF000E104F104F1F681E0E82EF12CEC0EFD1E8C
:100B0000E80CF91C3E010894611C711CD501C4015C
:100B10000197A109B1096C01C818D90814C0F601E0
:100B2000EE0DFF1D60816A3010F4605D01C0695CEC
:100B3000D101ED91FC910190F081E02DC101099569
:100B40000894E108F1086E147F0449F7A0960FB6E7
:100B5000F894DEBF0FBECDBFCF91DF911F910F91F3
:100B6000FF90EF90DF90CF90BF90AF909F908F90CD
:100B70007F906F905F904F903F902F900895EF92ED
:100B8000FF920F931F93CF93DF93EC017A018B01B8
:100B900077FF0FC0E881F9810190F081E02D6DE2CF
:100BA000099510950095F094E094E11CF11C011D4D
:100BB000111DCE01B801A7012AE00E942705DF918F
:100BC000CF911F910F91FF90EF900895AB01662791
:100BD00057FD6095762F0E94BF0508952F923F9292
:100BE0004F925F926F927F928F929F92AF92BF923D
:100BF000CF92DF92EF92FF920F931F93DF93CF93E9
:100C0000CDB7DEB73B014C0119012A016D897E8900
:100C10008F89988D6A197B098C099D09621A730A5C
:100C2000840A950AA40193010E943706E218F3088A
:100C300004091509A80197010E948B062A0D3B1D86
:100C40004C1D5D1DB901CA01CF91DF911F910F911C
:100C5000FF90EF90DF90CF90BF90AF909F908F90DC
:100C60007F906F905F904F903F902F900895629F7C
:100C7000D001739FF001829FE00DF11D649FE00D94
:100C8000F11D929FF00D839FF00D749FF00D659FF5
:100C9000F00D9927729FB00DE11DF91F639FB00DF4
:100CA000E11DF91FBD01CF011124089597FB092E05
:100CB00007260AD077FD04D049D006D000201AF4C8
:100CC000709561957F4F0895F6F7909581959F4FA8
:100CD0000895A1E21A2EAA1BBB1BFD010DC0AA1F7D
:100CE000BB1FEE1FFF1FA217B307E407F50720F095
:100CF000A21BB30BE40BF50B661F771F881F991F10
:100D00001A9469F760957095809590959B01AC0158
:100D1000BD01CF01089597FB092E05260ED057FD82
:100D200004D0D7DF0AD0001C38F450954095309598
:100D300021953F4F4F4F5F4F0895F6F7909580955F
:100D4000709561957F4F8F4F9F4F0895AA1BBB1BD6
:100D500051E107C0AA1FBB1FA617B70710F0A61BBB
:100D6000B70B881F991F5A95A9F780959095BC01DC
:100D7000CD010895EE0FFF1F0590F491E02D099429
:040D8000F894FFCF15
:100D840053656E736F723A20002C20496E64657847
:100D94003A20002C204C45443A200003000500066C
:100DA400000A000B00FF0301000000008404D104CA
:020DB400E90450
:00000001FF
