:100000003FC059C058C057C056C055C02EC153C07C
:1000100052C079C250C04FC04EC04DC04CC04BC042
:100020004AC049C048C00000000037003400310019
:1000300000000000380035003200000000003600EB
:100040003300300004040404040404040202020225
:10005000020203030303030301020408102040808B
:100060000102040810200102040810200000000012
:100070000000000000030405000000000000000074
:1000800011241FBECFE5D4E0DEBFCDBF10E0A0E657
:10009000B0E0ECE2F8E002C005900D92A03CB107A0
:1000A000D9F710E0A0ECB0E001C01D92AD3FB10760
:1000B000E1F794D3B9C3A4CF80E690E065E056D1D0
:1000C0008091660061E014D368EE73E080E090E018
:1000D0006ED28091660060E00BD368EE73E080E042
:1000E00090E065D2089580ED97E0EBD180916600B5
:1000F00061E0D8D208952091E000222329F0809178
:10010000EB008F5F8093EB008091EC009091ED000D
:10011000281759F0903510F08DE101C08BE0890F60
:100120008093ED002093EC0003C09C5E9093ED0063
:100130009091ED00903A08F488C02091EE00309143
:10014000EF00369527953093EF002093EE008091D5
:10015000EB00853028F038603093EF002093EE00FC
:10016000905A9093ED001092EB008091E900882363
:1001700009F45BC08091F0008F5F8093F0008C30B9
:1001800008F463C02091EE003091EF00922F9F732E
:10019000AFEAB0E0FD0140E08081981729F04F5FA1
:1001A00031964031C9F740E086E0369527958A952B
:1001B000E1F790E08C91281729F09F5F119690311C
:1001C000C9F790E0242F2295207F292B8091C10030
:1001D000882371F42093F100822F84508B3140F0FA
:1001E0001092E9008091F2008F5F8093F2000895F1
:1001F0008091C100E82FF0E0EE53FF4F20838F5F26
:100200008093C1009091C1008091F100981750F047
:100210001092E9008091F3008F5F8093F30081E0FA
:100220008093C0001092F00008958091EE009091AC
:10023000EF0088539B4049F481E08093E9001092DD
:10024000F0001092C1001092C00008958091AE009D
:100250006091EA004DD28091690060E049D210922D
:10026000E10081E08093E80008951F920F920FB69D
:100270000F9211242F933F934F935F936F937F932C
:100280008F939F93AF93BF93EF93FF9380916800F9
:100290006CD28093E0008091E1008823C1F18091CD
:1002A000E2008F5F8093E200815089F5E091E300E6
:1002B0008091E400E81758F0C9DF8091E500909143
:1002C000E60001969093E6008093E50020C08091BF
:1002D00069009091E70021E030E0092E02C0220F72
:1002E000331F0A94E2F7F0E0E659FF4F6081622382
:1002F0009F5F9093E700FCD18091E700863038F053
:100300001092E7008091E3008F5F8093E30080917B
:10031000E200883010F01092E2008091E800811134
:10032000EADEFF91EF91BF91AF919F918F917F9105
:100330006F915F914F913F912F910F900FBE0F9052
:100340001F9018951F931092E3001092E7001092EF
:10035000E2001092E8006091EA0011E061278091CC
:10036000AE00C6D11093E1001F910895CF93DF93A3
:10037000482F562F6C3110F080E0A0C08091E10032
:100380008823E1F7A52FAD5F6FEF7FEF6A27062E79
:100390006295607F6025072E762F62956F70062626
:1003A000669576276727660F660F660F6025B0E0B3
:1003B000FD0124E0F595E7952A95E1F7E155FF4F1A
:1003C000808180937200AF70B070A155BF4F8C9147
:1003D00080937300C4E7D0E0242F392FC901DC01DA
:1003E00025C0EC916E27062E6295607F6025072E52
:1003F000762F62956F700626669576276727660FBB
:10040000660F660F6025F0E094E0F595E7959A9504
:10041000E1F7E155FF4F80818883ED91F0E0EF70C7
:10042000F070E155FF4F8081898322968A2F841BCB
:100430008517B8F25F5F550F9B0120953095A52F6A
:10044000B0E0AE58BF4FF90184E0F695E7958A9584
:10045000E1F7EF70F070E155FF4F80818C93A52F8D
:10046000AF5F8A2F90E08E589F4FF901EF70F070C8
:10047000E155FF4F4081FC014083AF5F8A2F90E040
:100480008E589F4FF901EF2FFF27E295EF70E1554E
:10049000FF4F4081FC014083AF5FB0E0AE58BF4FDB
:1004A000232F33272F70307021553F4FF901808162
:1004B0008C93545F5093E40045DF81E0DF91CF914E
:1004C00008959C0140E050E060E472E48FE090E029
:1004D00089D11FBC89E08EBD3BBD2ABD89B7806133
:1004E00089BF8091690061E0DDD08091680060E0A3
:1004F000D9D08091AE0061E0D5D08091AE006091FE
:10050000EA00F6D008951F920F920FB60F921124B1
:100510002F933F934F935F936F937F938F939F930B
:10052000AF93BF932091F8003091F9004091FA0009
:100530005091FB007091FC00DA01C9010296A11DE7
:10054000B11D672F6A5F6D3730F06D57DA01C90151
:100550000396A11DB11D6093FC008093F800909359
:10056000F900A093FA00B093FB008091F400909101
:10057000F500A091F600B091F7000196A11DB11D04
:100580008093F4009093F500A093F600B093F700E9
:10059000BF91AF919F918F917F916F915F914F919B
:1005A0003F912F910F900FBE0F901F9018959B01B8
:1005B000AC017FB7F8948091F4009091F500A09180
:1005C000F600B091F70062B708B600FE05C06F3FB5
:1005D00019F00196A11DB11D7FBFBA2FA92F982F29
:1005E0008827860F911DA11DB11D63E0880F991FFB
:1005F000AA1FBB1F6A95D1F7BC012EC0FFB7F894A4
:100600008091F4009091F500A091F600B091F70070
:10061000E2B708B600FE05C0EF3F19F00196A11D34
:10062000B11DFFBFBA2FA92F982F88278E0F911DBC
:10063000A11DB11DE3E0880F991FAA1FBB1FEA95FA
:10064000D1F7861B970B885E9340C0F22150304053
:100650004040504068517C4F2115310541055105FE
:1006600069F60895789483B7826083BF83B7816009
:1006700083BF89B7816089BF1EBC8EB582608EBD85
:100680008EB581608EBD8FB581608FBD85B584606C
:1006900085BD85B5806485BD329A319A309A379A86
:1006A0001AB80895482F50E0CA01885A9F4FFC019C
:1006B00024914C5B5F4FFA0184918823C1F0E82FAD
:1006C000F0E0EE0FFF1FEA5DFF4FA591B4916623A6
:1006D00041F49FB7F8948C91209582238C939FBF0F
:1006E00008959FB7F8948C91822B8C939FBF0895A7
:1006F000482F50E0CA0184599F4FFC012491CA0140
:10070000885A9F4FFC0134914C5B5F4FFA019491E2
:10071000992351F1222381F0243039F0253049F01A
:10072000233051F48FB58F7702C08FB58F7D8FBD89
:1007300003C085B58F7D85BDE92FF0E0EE0FFF1F6B
:10074000E05DFF4FA591B491662341F49FB7F89403
:100750008C91309583238C939FBF08959FB7F89415
:100760008C91832B8C939FBF0895682F70E0CB01F1
:1007700084599F4FFC012491CB01885A9F4FFC0163
:1007800044916C5B7F4FFB019491992319F420E015
:1007900030E022C0222381F0243039F0253049F0A6
:1007A000233051F48FB58F7702C08FB58F7D8FBD09
:1007B00003C085B58F7D85BD892F90E0880F991F77
:1007C000865C9F4FFC01A591B4918C9120E030E0B4
:1007D000842311F021E030E0C901089543DF83DC78
:1007E0006BDCFECFA1E21A2EAA1BBB1BFD010DC0C4
:1007F000AA1FBB1FEE1FFF1FA217B307E407F507D1
:1008000020F0A21BB30BE40BF50B661F771F881FAC
:10081000991F1A9469F760957095809590959B0142
:0C082000AC01BD01CF010895F894FFCF9A
:10082C0068656C6C6F0002000B0C2A2A2A2A2A2A93
:10083C00382C000000000000000000000000000048
:10084C00000000000000000000000000000000009C
:10085C00000000000000000000000000000000008C
:10086C0000000000000000000000000000000A0D65
:10087C000E131516191A1C232526292A2C3234007E
:00000001FF
